{
  "_format": "hh-sol-artifact-1",
  "contractName": "Lottery_Entry",
  "sourceName": "contracts/Lottery_Entry.sol",
  "abi": [
    {
      "inputs": [],
      "name": "Entryfunding",
      "outputs": [
        {
          "internalType": "uint256",
          "name": "",
          "type": "uint256"
        }
      ],
      "stateMutability": "view",
      "type": "function"
    },
    {
      "inputs": [],
      "name": "Num_entries",
      "outputs": [
        {
          "internalType": "uint256",
          "name": "",
          "type": "uint256"
        }
      ],
      "stateMutability": "view",
      "type": "function"
    },
    {
      "inputs": [],
      "name": "UserEntryCheck",
      "outputs": [
        {
          "internalType": "bool",
          "name": "",
          "type": "bool"
        }
      ],
      "stateMutability": "view",
      "type": "function"
    },
    {
      "inputs": [
        {
          "internalType": "uint256",
          "name": "age",
          "type": "uint256"
        },
        {
          "internalType": "uint256",
          "name": "ticket_price_USDC",
          "type": "uint256"
        }
      ],
      "name": "enterLottery",
      "outputs": [],
      "stateMutability": "payable",
      "type": "function"
    },
    {
      "inputs": [],
      "name": "entryClosed",
      "outputs": [
        {
          "internalType": "bool",
          "name": "",
          "type": "bool"
        }
      ],
      "stateMutability": "view",
      "type": "function"
    },
    {
      "inputs": [
        {
          "internalType": "address",
          "name": "",
          "type": "address"
        }
      ],
      "name": "entryExists",
      "outputs": [
        {
          "internalType": "bool",
          "name": "",
          "type": "bool"
        }
      ],
      "stateMutability": "view",
      "type": "function"
    },
    {
      "inputs": [],
      "name": "userage",
      "outputs": [
        {
          "internalType": "uint256",
          "name": "",
          "type": "uint256"
        }
      ],
      "stateMutability": "view",
      "type": "function"
    }
  ],
  "bytecode": "0x6080604052603260015560646002556000600360006101000a81548160ff0219169083151502179055506000600760006101000a81548160ff02191690831515021790555034801561005057600080fd5b5061094b806100606000396000f3fe6080604052600436106100705760003560e01c806370d81a9e1161004e57806370d81a9e146100e7578063769a61331461011257806385e31a5e1461013d578063fad9884d1461016857610070565b8063075c534b146100755780631b7052b2146100a057806332b6c2f1146100bc575b600080fd5b34801561008157600080fd5b5061008a6101a5565b6040516100979190610566565b60405180910390f35b6100ba60048036038101906100b591906105b2565b6101ab565b005b3480156100c857600080fd5b506100d16104fb565b6040516100de919061060d565b60405180910390f35b3480156100f357600080fd5b506100fc61050e565b604051610109919061060d565b60405180910390f35b34801561011e57600080fd5b50610127610521565b6040516101349190610566565b60405180910390f35b34801561014957600080fd5b50610152610527565b60405161015f9190610566565b60405180910390f35b34801561017457600080fd5b5061018f600480360381019061018a9190610686565b61052d565b60405161019c919061060d565b60405180910390f35b60045481565b6001543373ffffffffffffffffffffffffffffffffffffffff1631116101d4576101d36106b3565b5b6012821015610218576040517f08c379a000000000000000000000000000000000000000000000000000000000815260040161020f90610765565b60405180910390fd5b816006819055506000819050600154811015610269576040517f08c379a0000000000000000000000000000000000000000000000000000000008152600401610260906107f7565b60405180910390fd5b600254600080549050036102b2576040517f08c379a00000000000000000000000000000000000000000000000000000000081526004016102a990610863565b60405180910390fd5b600860003373ffffffffffffffffffffffffffffffffffffffff1673ffffffffffffffffffffffffffffffffffffffff16815260200190815260200160002060009054906101000a900460ff161561033f576040517f08c379a0000000000000000000000000000000000000000000000000000000008152600401610336906108f5565b60405180910390fd5b6000339080600181540180825580915050600190039060005260206000200160009091909190916101000a81548173ffffffffffffffffffffffffffffffffffffffff021916908373ffffffffffffffffffffffffffffffffffffffff1602179055506001600860003373ffffffffffffffffffffffffffffffffffffffff1673ffffffffffffffffffffffffffffffffffffffff16815260200190815260200160002060006101000a81548160ff021916908315150217905550600860003373ffffffffffffffffffffffffffffffffffffffff1673ffffffffffffffffffffffffffffffffffffffff16815260200190815260200160002060009054906101000a900460ff16600760006101000a81548160ff02191690831515021790555081600960003373ffffffffffffffffffffffffffffffffffffffff1673ffffffffffffffffffffffffffffffffffffffff16815260200190815260200160002081905550600960003373ffffffffffffffffffffffffffffffffffffffff1673ffffffffffffffffffffffffffffffffffffffff16815260200190815260200160002054600581905550600080549050600481905550505050565b600360009054906101000a900460ff1681565b600760009054906101000a900460ff1681565b60065481565b60055481565b60086020528060005260406000206000915054906101000a900460ff1681565b6000819050919050565b6105608161054d565b82525050565b600060208201905061057b6000830184610557565b92915050565b600080fd5b61058f8161054d565b811461059a57600080fd5b50565b6000813590506105ac81610586565b92915050565b600080604083850312156105c9576105c8610581565b5b60006105d78582860161059d565b92505060206105e88582860161059d565b9150509250929050565b60008115159050919050565b610607816105f2565b82525050565b600060208201905061062260008301846105fe565b92915050565b600073ffffffffffffffffffffffffffffffffffffffff82169050919050565b600061065382610628565b9050919050565b61066381610648565b811461066e57600080fd5b50565b6000813590506106808161065a565b92915050565b60006020828403121561069c5761069b610581565b5b60006106aa84828501610671565b91505092915050565b7f4e487b7100000000000000000000000000000000000000000000000000000000600052600160045260246000fd5b600082825260208201905092915050565b7f596f75206d757374206265206174206c65617374203138207965617273206f6c60008201527f6420746f20656e74657220746865206c6f747465727900000000000000000000602082015250565b600061074f6036836106e2565b915061075a826106f3565b604082019050919050565b6000602082019050818103600083015261077e81610742565b9050919050565b7f596f75206d7573742073656e642061746c65617374203530205553444320746f60008201527f20656e74657220746865206c6f74746572790000000000000000000000000000602082015250565b60006107e16032836106e2565b91506107ec82610785565b604082019050919050565b60006020820190508181036000830152610810816107d4565b9050919050565b7f4c6f747465727920656e74727920697320636c6f736564000000000000000000600082015250565b600061084d6017836106e2565b915061085882610817565b602082019050919050565b6000602082019050818103600083015261087c81610840565b9050919050565b7f596f75206861766520616c726561647920656e746572656420746865206c6f7460008201527f7465727900000000000000000000000000000000000000000000000000000000602082015250565b60006108df6024836106e2565b91506108ea82610883565b604082019050919050565b6000602082019050818103600083015261090e816108d2565b905091905056fea264697066735822122049d2e263e287954a6b7e8accbe53230bbe9c316da70254d8a5ef72a2e91c60ac64736f6c63430008120033",
  "linkReferences": {},
  "deployedLinkReferences": {}
}