{
  "_format": "hh-sol-artifact-1",
  "contractName": "Lottery_Entry",
  "sourceName": "contracts/Lottery_Entry.sol",
  "abi": [
    {
      "inputs": [],
      "name": "Entryfunding",
      "outputs": [
        {
          "internalType": "uint256",
          "name": "",
          "type": "uint256"
        }
      ],
      "stateMutability": "view",
      "type": "function"
    },
    {
      "inputs": [],
      "name": "Num_entries",
      "outputs": [
        {
          "internalType": "uint256",
          "name": "",
          "type": "uint256"
        }
      ],
      "stateMutability": "view",
      "type": "function"
    },
    {
      "inputs": [
        {
          "internalType": "uint256",
          "name": "age",
          "type": "uint256"
        },
        {
          "internalType": "uint256",
          "name": "ticket_price_USDC",
          "type": "uint256"
        }
      ],
      "name": "enterLottery",
      "outputs": [],
      "stateMutability": "payable",
      "type": "function"
    },
    {
      "inputs": [],
      "name": "entryClosed",
      "outputs": [
        {
          "internalType": "bool",
          "name": "",
          "type": "bool"
        }
      ],
      "stateMutability": "view",
      "type": "function"
    },
    {
      "inputs": [
        {
          "internalType": "address",
          "name": "",
          "type": "address"
        }
      ],
      "name": "entryExists",
      "outputs": [
        {
          "internalType": "bool",
          "name": "",
          "type": "bool"
        }
      ],
      "stateMutability": "view",
      "type": "function"
    }
  ],
  "bytecode": "0x6080604052603260015560646002556000600360006101000a81548160ff02191690831515021790555034801561003557600080fd5b50610849806100456000396000f3fe60806040526004361061004a5760003560e01c8063075c534b1461004f5780631b7052b21461007a57806332b6c2f11461009657806385e31a5e146100c1578063fad9884d146100ec575b600080fd5b34801561005b57600080fd5b50610064610129565b6040516100719190610464565b60405180910390f35b610094600480360381019061008f91906104b0565b61012f565b005b3480156100a257600080fd5b506100ab610412565b6040516100b8919061050b565b60405180910390f35b3480156100cd57600080fd5b506100d6610425565b6040516100e39190610464565b60405180910390f35b3480156100f857600080fd5b50610113600480360381019061010e9190610584565b61042b565b604051610120919061050b565b60405180910390f35b60045481565b6001543373ffffffffffffffffffffffffffffffffffffffff163111610158576101576105b1565b5b601282101561019c576040517f08c379a000000000000000000000000000000000000000000000000000000000815260040161019390610663565b60405180910390fd5b60008190506001548110156101e6576040517f08c379a00000000000000000000000000000000000000000000000000000000081526004016101dd906106f5565b60405180910390fd5b6002546000805490500361022f576040517f08c379a000000000000000000000000000000000000000000000000000000000815260040161022690610761565b60405180910390fd5b600660003373ffffffffffffffffffffffffffffffffffffffff1673ffffffffffffffffffffffffffffffffffffffff16815260200190815260200160002060009054906101000a900460ff16156102bc576040517f08c379a00000000000000000000000000000000000000000000000000000000081526004016102b3906107f3565b60405180910390fd5b6000339080600181540180825580915050600190039060005260206000200160009091909190916101000a81548173ffffffffffffffffffffffffffffffffffffffff021916908373ffffffffffffffffffffffffffffffffffffffff1602179055506001600660003373ffffffffffffffffffffffffffffffffffffffff1673ffffffffffffffffffffffffffffffffffffffff16815260200190815260200160002060006101000a81548160ff02191690831515021790555081600760003373ffffffffffffffffffffffffffffffffffffffff1673ffffffffffffffffffffffffffffffffffffffff16815260200190815260200160002081905550600760003373ffffffffffffffffffffffffffffffffffffffff1673ffffffffffffffffffffffffffffffffffffffff16815260200190815260200160002054600581905550600080549050600481905550505050565b600360009054906101000a900460ff1681565b60055481565b60066020528060005260406000206000915054906101000a900460ff1681565b6000819050919050565b61045e8161044b565b82525050565b60006020820190506104796000830184610455565b92915050565b600080fd5b61048d8161044b565b811461049857600080fd5b50565b6000813590506104aa81610484565b92915050565b600080604083850312156104c7576104c661047f565b5b60006104d58582860161049b565b92505060206104e68582860161049b565b9150509250929050565b60008115159050919050565b610505816104f0565b82525050565b600060208201905061052060008301846104fc565b92915050565b600073ffffffffffffffffffffffffffffffffffffffff82169050919050565b600061055182610526565b9050919050565b61056181610546565b811461056c57600080fd5b50565b60008135905061057e81610558565b92915050565b60006020828403121561059a5761059961047f565b5b60006105a88482850161056f565b91505092915050565b7f4e487b7100000000000000000000000000000000000000000000000000000000600052600160045260246000fd5b600082825260208201905092915050565b7f596f75206d757374206265206174206c65617374203138207965617273206f6c60008201527f6420746f20656e74657220746865206c6f747465727900000000000000000000602082015250565b600061064d6036836105e0565b9150610658826105f1565b604082019050919050565b6000602082019050818103600083015261067c81610640565b9050919050565b7f596f75206d7573742073656e642061746c65617374203530205553444320746f60008201527f20656e74657220746865206c6f74746572790000000000000000000000000000602082015250565b60006106df6032836105e0565b91506106ea82610683565b604082019050919050565b6000602082019050818103600083015261070e816106d2565b9050919050565b7f4c6f747465727920656e74727920697320636c6f736564000000000000000000600082015250565b600061074b6017836105e0565b915061075682610715565b602082019050919050565b6000602082019050818103600083015261077a8161073e565b9050919050565b7f596f75206861766520616c726561647920656e746572656420746865206c6f7460008201527f7465727900000000000000000000000000000000000000000000000000000000602082015250565b60006107dd6024836105e0565b91506107e882610781565b604082019050919050565b6000602082019050818103600083015261080c816107d0565b905091905056fea2646970667358221220462d46e8e41807536ce2b6e4ca82729bae554790dfc3e2d333a8a42157d1525364736f6c63430008120033",
  "linkReferences": {},
  "deployedLinkReferences": {}
}