{
  "_format": "hh-sol-artifact-1",
  "contractName": "Lottery",
  "sourceName": "contracts/Lottery.sol",
  "abi": [
    {
      "inputs": [],
      "name": "Entryfunding",
      "outputs": [
        {
          "internalType": "uint256",
          "name": "",
          "type": "uint256"
        }
      ],
      "stateMutability": "view",
      "type": "function"
    },
    {
      "inputs": [],
      "name": "Num_entries",
      "outputs": [
        {
          "internalType": "uint256",
          "name": "",
          "type": "uint256"
        }
      ],
      "stateMutability": "view",
      "type": "function"
    },
    {
      "inputs": [],
      "name": "Userfunding",
      "outputs": [
        {
          "internalType": "uint256",
          "name": "",
          "type": "uint256"
        }
      ],
      "stateMutability": "view",
      "type": "function"
    },
    {
      "inputs": [
        {
          "internalType": "uint256",
          "name": "age",
          "type": "uint256"
        },
        {
          "internalType": "uint256",
          "name": "ticket_price_USDC",
          "type": "uint256"
        }
      ],
      "name": "enterLottery",
      "outputs": [],
      "stateMutability": "payable",
      "type": "function"
    },
    {
      "inputs": [],
      "name": "entryClosed",
      "outputs": [
        {
          "internalType": "bool",
          "name": "",
          "type": "bool"
        }
      ],
      "stateMutability": "view",
      "type": "function"
    },
    {
      "inputs": [
        {
          "internalType": "address",
          "name": "",
          "type": "address"
        }
      ],
      "name": "entryExists",
      "outputs": [
        {
          "internalType": "bool",
          "name": "",
          "type": "bool"
        }
      ],
      "stateMutability": "view",
      "type": "function"
    },
    {
      "inputs": [],
      "name": "withdrawLotteryFunds",
      "outputs": [],
      "stateMutability": "nonpayable",
      "type": "function"
    }
  ],
  "bytecode": "0x6080604052603260015560646002556000600360006101000a81548160ff02191690831515021790555034801561003557600080fd5b50610ca1806100456000396000f3fe6080604052600436106100705760003560e01c8063697196f01161004e578063697196f0146100e757806385e31a5e146100fe578063fad9884d14610129578063fc00ea3f1461016657610070565b8063075c534b146100755780631b7052b2146100a057806332b6c2f1146100bc575b600080fd5b34801561008157600080fd5b5061008a610191565b604051610097919061075b565b60405180910390f35b6100ba60048036038101906100b591906107a7565b610197565b005b3480156100c857600080fd5b506100d161047a565b6040516100de9190610802565b60405180910390f35b3480156100f357600080fd5b506100fc61048d565b005b34801561010a57600080fd5b50610113610716565b604051610120919061075b565b60405180910390f35b34801561013557600080fd5b50610150600480360381019061014b919061087b565b61071c565b60405161015d9190610802565b60405180910390f35b34801561017257600080fd5b5061017b61073c565b604051610188919061075b565b60405180910390f35b60045481565b6001543373ffffffffffffffffffffffffffffffffffffffff1631116101c0576101bf6108a8565b5b6012821015610204576040517f08c379a00000000000000000000000000000000000000000000000000000000081526004016101fb9061095a565b60405180910390fd5b600081905060015481101561024e576040517f08c379a0000000000000000000000000000000000000000000000000000000008152600401610245906109ec565b60405180910390fd5b60025460008054905003610297576040517f08c379a000000000000000000000000000000000000000000000000000000000815260040161028e90610a58565b60405180910390fd5b600660003373ffffffffffffffffffffffffffffffffffffffff1673ffffffffffffffffffffffffffffffffffffffff16815260200190815260200160002060009054906101000a900460ff1615610324576040517f08c379a000000000000000000000000000000000000000000000000000000000815260040161031b90610aea565b60405180910390fd5b6000339080600181540180825580915050600190039060005260206000200160009091909190916101000a81548173ffffffffffffffffffffffffffffffffffffffff021916908373ffffffffffffffffffffffffffffffffffffffff1602179055506001600660003373ffffffffffffffffffffffffffffffffffffffff1673ffffffffffffffffffffffffffffffffffffffff16815260200190815260200160002060006101000a81548160ff02191690831515021790555081600760003373ffffffffffffffffffffffffffffffffffffffff1673ffffffffffffffffffffffffffffffffffffffff16815260200190815260200160002081905550600760003373ffffffffffffffffffffffffffffffffffffffff1673ffffffffffffffffffffffffffffffffffffffff16815260200190815260200160002054600581905550600080549050600481905550505050565b600360009054906101000a900460ff1681565b600660003373ffffffffffffffffffffffffffffffffffffffff1673ffffffffffffffffffffffffffffffffffffffff16815260200190815260200160002060009054906101000a900460ff16610519576040517f08c379a000000000000000000000000000000000000000000000000000000000815260040161051090610b56565b60405180910390fd5b6000600760003373ffffffffffffffffffffffffffffffffffffffff1673ffffffffffffffffffffffffffffffffffffffff168152602001908152602001600020541161059b576040517f08c379a000000000000000000000000000000000000000000000000000000000815260040161059290610be8565b60405180910390fd5b600154600760003373ffffffffffffffffffffffffffffffffffffffff1673ffffffffffffffffffffffffffffffffffffffff168152602001908152602001600020546105e89190610c37565b600860003373ffffffffffffffffffffffffffffffffffffffff1673ffffffffffffffffffffffffffffffffffffffff16815260200190815260200160002081905550600860003373ffffffffffffffffffffffffffffffffffffffff1673ffffffffffffffffffffffffffffffffffffffff168152602001908152602001600020546009819055506000600760003373ffffffffffffffffffffffffffffffffffffffff1673ffffffffffffffffffffffffffffffffffffffff16815260200190815260200160002081905550600760003373ffffffffffffffffffffffffffffffffffffffff1673ffffffffffffffffffffffffffffffffffffffff16815260200190815260200160002054600581905550600160008054905061070e9190610c37565b600481905550565b60055481565b60066020528060005260406000206000915054906101000a900460ff1681565b60095481565b6000819050919050565b61075581610742565b82525050565b6000602082019050610770600083018461074c565b92915050565b600080fd5b61078481610742565b811461078f57600080fd5b50565b6000813590506107a18161077b565b92915050565b600080604083850312156107be576107bd610776565b5b60006107cc85828601610792565b92505060206107dd85828601610792565b9150509250929050565b60008115159050919050565b6107fc816107e7565b82525050565b600060208201905061081760008301846107f3565b92915050565b600073ffffffffffffffffffffffffffffffffffffffff82169050919050565b60006108488261081d565b9050919050565b6108588161083d565b811461086357600080fd5b50565b6000813590506108758161084f565b92915050565b60006020828403121561089157610890610776565b5b600061089f84828501610866565b91505092915050565b7f4e487b7100000000000000000000000000000000000000000000000000000000600052600160045260246000fd5b600082825260208201905092915050565b7f596f75206d757374206265206174206c65617374203138207965617273206f6c60008201527f6420746f20656e74657220746865206c6f747465727900000000000000000000602082015250565b60006109446036836108d7565b915061094f826108e8565b604082019050919050565b6000602082019050818103600083015261097381610937565b9050919050565b7f596f75206d7573742073656e642061746c65617374203530205553444320746f60008201527f20656e74657220746865206c6f74746572790000000000000000000000000000602082015250565b60006109d66032836108d7565b91506109e18261097a565b604082019050919050565b60006020820190508181036000830152610a05816109c9565b9050919050565b7f4c6f747465727920656e74727920697320636c6f736564000000000000000000600082015250565b6000610a426017836108d7565b9150610a4d82610a0c565b602082019050919050565b60006020820190508181036000830152610a7181610a35565b9050919050565b7f596f75206861766520616c726561647920656e746572656420746865206c6f7460008201527f7465727900000000000000000000000000000000000000000000000000000000602082015250565b6000610ad46024836108d7565b9150610adf82610a78565b604082019050919050565b60006020820190508181036000830152610b0381610ac7565b9050919050565b7f596f752068617665206e6f7420656e746572656420746865206c6f7474657279600082015250565b6000610b406020836108d7565b9150610b4b82610b0a565b602082019050919050565b60006020820190508181036000830152610b6f81610b33565b9050919050565b7f596f75206861766520616c72656164792077697468647261776e20796f75722060008201527f66756e6473000000000000000000000000000000000000000000000000000000602082015250565b6000610bd26025836108d7565b9150610bdd82610b76565b604082019050919050565b60006020820190508181036000830152610c0181610bc5565b9050919050565b7f4e487b7100000000000000000000000000000000000000000000000000000000600052601160045260246000fd5b6000610c4282610742565b9150610c4d83610742565b9250828203905081811115610c6557610c64610c08565b5b9291505056fea2646970667358221220f83a0187bdeccfa3cae3448d2b879c105520d8934b473c6c807a486883ff1be964736f6c63430008120033",
  "linkReferences": {},
  "deployedLinkReferences": {}
}