{
  "_format": "hh-sol-artifact-1",
  "contractName": "Lottery",
  "sourceName": "contracts/Lottery.sol",
  "abi": [
    {
      "inputs": [],
      "name": "Entryfunding",
      "outputs": [
        {
          "internalType": "uint256",
          "name": "",
          "type": "uint256"
        }
      ],
      "stateMutability": "view",
      "type": "function"
    },
    {
      "inputs": [],
      "name": "Num_entries",
      "outputs": [
        {
          "internalType": "uint256",
          "name": "",
          "type": "uint256"
        }
      ],
      "stateMutability": "view",
      "type": "function"
    },
    {
      "inputs": [],
      "name": "UserEntryCheck",
      "outputs": [
        {
          "internalType": "bool",
          "name": "",
          "type": "bool"
        }
      ],
      "stateMutability": "view",
      "type": "function"
    },
    {
      "inputs": [],
      "name": "Userfunding",
      "outputs": [
        {
          "internalType": "uint256",
          "name": "",
          "type": "uint256"
        }
      ],
      "stateMutability": "view",
      "type": "function"
    },
    {
      "inputs": [],
      "name": "checkuser",
      "outputs": [
        {
          "internalType": "bool",
          "name": "",
          "type": "bool"
        }
      ],
      "stateMutability": "view",
      "type": "function"
    },
    {
      "inputs": [
        {
          "internalType": "uint256",
          "name": "age",
          "type": "uint256"
        },
        {
          "internalType": "uint256",
          "name": "ticket_price_USDC",
          "type": "uint256"
        }
      ],
      "name": "enterLottery",
      "outputs": [],
      "stateMutability": "payable",
      "type": "function"
    },
    {
      "inputs": [],
      "name": "entryClosed",
      "outputs": [
        {
          "internalType": "bool",
          "name": "",
          "type": "bool"
        }
      ],
      "stateMutability": "view",
      "type": "function"
    },
    {
      "inputs": [
        {
          "internalType": "address",
          "name": "",
          "type": "address"
        }
      ],
      "name": "entryExists",
      "outputs": [
        {
          "internalType": "bool",
          "name": "",
          "type": "bool"
        }
      ],
      "stateMutability": "view",
      "type": "function"
    },
    {
      "inputs": [],
      "name": "userage",
      "outputs": [
        {
          "internalType": "uint256",
          "name": "",
          "type": "uint256"
        }
      ],
      "stateMutability": "view",
      "type": "function"
    },
    {
      "inputs": [],
      "name": "withdrawLotteryFunds",
      "outputs": [],
      "stateMutability": "nonpayable",
      "type": "function"
    }
  ],
  "bytecode": "0x6080604052603260015560646002556000600360006101000a81548160ff0219169083151502179055506000600760006101000a81548160ff02191690831515021790555034801561005057600080fd5b50610e1d806100606000396000f3fe6080604052600436106100915760003560e01c8063769a613311610059578063769a61331461014a57806385e31a5e14610175578063fad9884d146101a0578063fc00ea3f146101dd578063fe8301451461020857610091565b8063075c534b146100965780631b7052b2146100c157806332b6c2f1146100dd578063697196f01461010857806370d81a9e1461011f575b600080fd5b3480156100a257600080fd5b506100ab610233565b6040516100b891906108d7565b60405180910390f35b6100db60048036038101906100d69190610923565b610239565b005b3480156100e957600080fd5b506100f2610589565b6040516100ff919061097e565b60405180910390f35b34801561011457600080fd5b5061011d61059c565b005b34801561012b57600080fd5b50610134610825565b604051610141919061097e565b60405180910390f35b34801561015657600080fd5b5061015f610838565b60405161016c91906108d7565b60405180910390f35b34801561018157600080fd5b5061018a61083e565b60405161019791906108d7565b60405180910390f35b3480156101ac57600080fd5b506101c760048036038101906101c291906109f7565b610844565b6040516101d4919061097e565b60405180910390f35b3480156101e957600080fd5b506101f2610864565b6040516101ff91906108d7565b60405180910390f35b34801561021457600080fd5b5061021d61086a565b60405161022a919061097e565b60405180910390f35b60045481565b6001543373ffffffffffffffffffffffffffffffffffffffff16311161026257610261610a24565b5b60128210156102a6576040517f08c379a000000000000000000000000000000000000000000000000000000000815260040161029d90610ad6565b60405180910390fd5b8160068190555060008190506001548110156102f7576040517f08c379a00000000000000000000000000000000000000000000000000000000081526004016102ee90610b68565b60405180910390fd5b60025460008054905003610340576040517f08c379a000000000000000000000000000000000000000000000000000000000815260040161033790610bd4565b60405180910390fd5b600860003373ffffffffffffffffffffffffffffffffffffffff1673ffffffffffffffffffffffffffffffffffffffff16815260200190815260200160002060009054906101000a900460ff16156103cd576040517f08c379a00000000000000000000000000000000000000000000000000000000081526004016103c490610c66565b60405180910390fd5b6000339080600181540180825580915050600190039060005260206000200160009091909190916101000a81548173ffffffffffffffffffffffffffffffffffffffff021916908373ffffffffffffffffffffffffffffffffffffffff1602179055506001600860003373ffffffffffffffffffffffffffffffffffffffff1673ffffffffffffffffffffffffffffffffffffffff16815260200190815260200160002060006101000a81548160ff021916908315150217905550600860003373ffffffffffffffffffffffffffffffffffffffff1673ffffffffffffffffffffffffffffffffffffffff16815260200190815260200160002060009054906101000a900460ff16600760006101000a81548160ff02191690831515021790555081600960003373ffffffffffffffffffffffffffffffffffffffff1673ffffffffffffffffffffffffffffffffffffffff16815260200190815260200160002081905550600960003373ffffffffffffffffffffffffffffffffffffffff1673ffffffffffffffffffffffffffffffffffffffff16815260200190815260200160002054600581905550600080549050600481905550505050565b600360009054906101000a900460ff1681565b600860003373ffffffffffffffffffffffffffffffffffffffff1673ffffffffffffffffffffffffffffffffffffffff16815260200190815260200160002060009054906101000a900460ff16610628576040517f08c379a000000000000000000000000000000000000000000000000000000000815260040161061f90610cd2565b60405180910390fd5b6000600960003373ffffffffffffffffffffffffffffffffffffffff1673ffffffffffffffffffffffffffffffffffffffff16815260200190815260200160002054116106aa576040517f08c379a00000000000000000000000000000000000000000000000000000000081526004016106a190610d64565b60405180910390fd5b600154600960003373ffffffffffffffffffffffffffffffffffffffff1673ffffffffffffffffffffffffffffffffffffffff168152602001908152602001600020546106f79190610db3565b600a60003373ffffffffffffffffffffffffffffffffffffffff1673ffffffffffffffffffffffffffffffffffffffff16815260200190815260200160002081905550600a60003373ffffffffffffffffffffffffffffffffffffffff1673ffffffffffffffffffffffffffffffffffffffff16815260200190815260200160002054600b819055506000600960003373ffffffffffffffffffffffffffffffffffffffff1673ffffffffffffffffffffffffffffffffffffffff16815260200190815260200160002081905550600960003373ffffffffffffffffffffffffffffffffffffffff1673ffffffffffffffffffffffffffffffffffffffff16815260200190815260200160002054600581905550600160008054905061081d9190610db3565b600481905550565b600760009054906101000a900460ff1681565b60065481565b60055481565b60086020528060005260406000206000915054906101000a900460ff1681565b600b5481565b6000600860003373ffffffffffffffffffffffffffffffffffffffff1673ffffffffffffffffffffffffffffffffffffffff16815260200190815260200160002060009054906101000a900460ff16905090565b6000819050919050565b6108d1816108be565b82525050565b60006020820190506108ec60008301846108c8565b92915050565b600080fd5b610900816108be565b811461090b57600080fd5b50565b60008135905061091d816108f7565b92915050565b6000806040838503121561093a576109396108f2565b5b60006109488582860161090e565b92505060206109598582860161090e565b9150509250929050565b60008115159050919050565b61097881610963565b82525050565b6000602082019050610993600083018461096f565b92915050565b600073ffffffffffffffffffffffffffffffffffffffff82169050919050565b60006109c482610999565b9050919050565b6109d4816109b9565b81146109df57600080fd5b50565b6000813590506109f1816109cb565b92915050565b600060208284031215610a0d57610a0c6108f2565b5b6000610a1b848285016109e2565b91505092915050565b7f4e487b7100000000000000000000000000000000000000000000000000000000600052600160045260246000fd5b600082825260208201905092915050565b7f596f75206d757374206265206174206c65617374203138207965617273206f6c60008201527f6420746f20656e74657220746865206c6f747465727900000000000000000000602082015250565b6000610ac0603683610a53565b9150610acb82610a64565b604082019050919050565b60006020820190508181036000830152610aef81610ab3565b9050919050565b7f596f75206d7573742073656e642061746c65617374203530205553444320746f60008201527f20656e74657220746865206c6f74746572790000000000000000000000000000602082015250565b6000610b52603283610a53565b9150610b5d82610af6565b604082019050919050565b60006020820190508181036000830152610b8181610b45565b9050919050565b7f4c6f747465727920656e74727920697320636c6f736564000000000000000000600082015250565b6000610bbe601783610a53565b9150610bc982610b88565b602082019050919050565b60006020820190508181036000830152610bed81610bb1565b9050919050565b7f596f75206861766520616c726561647920656e746572656420746865206c6f7460008201527f7465727900000000000000000000000000000000000000000000000000000000602082015250565b6000610c50602483610a53565b9150610c5b82610bf4565b604082019050919050565b60006020820190508181036000830152610c7f81610c43565b9050919050565b7f596f752068617665206e6f7420656e746572656420746865206c6f7474657279600082015250565b6000610cbc602083610a53565b9150610cc782610c86565b602082019050919050565b60006020820190508181036000830152610ceb81610caf565b9050919050565b7f596f75206861766520616c72656164792077697468647261776e20796f75722060008201527f66756e6473000000000000000000000000000000000000000000000000000000602082015250565b6000610d4e602583610a53565b9150610d5982610cf2565b604082019050919050565b60006020820190508181036000830152610d7d81610d41565b9050919050565b7f4e487b7100000000000000000000000000000000000000000000000000000000600052601160045260246000fd5b6000610dbe826108be565b9150610dc9836108be565b9250828203905081811115610de157610de0610d84565b5b9291505056fea2646970667358221220915ba74c29af9d0b896f33fc79eaaca8075fbea951ebac426f40498c6cc3cc6264736f6c63430008120033",
  "linkReferences": {},
  "deployedLinkReferences": {}
}